:10019C00103A0002000000020001000200050003FA
:1001AC000009100800020000000200010002000516
:1001BC0000040005202218003F0006005B004F00E1
:1001CC0066006D007D0007007F006F0077007C00EB
:0901DC0039005E00790071000099
:10025000338F82F5831201E625E02418F808E6F5CD
:05026000807F647E00B8
:0B026500EF1FAC0670011E4C70F6226B
:10027000E4FDFCC3ED9FEC9E5015E4FBFA0BBB00C4
:0F028000010AEB64724A70F50DBD00010C80E4B9
:01028F00224C
:10021E00E4F550F551F552F553C2A2C2A3C2A4F5AE
:10022E0050F551E55125E0FFE550120250E4F580FE
:10023E000551E55170020550C3940AE550940040F3
:01024E00E2CD
:01024F00228C
:10008F00E4F54CF54DF54EF54FF54CF54DC37407B2
:10009F00954DFFE4954C7053EFB40800504D900010
:1000AF00B4F82828730200CC0200D00200D8020056
:1000BF00DC0200E40200E80200F00200F4C2A280B9
:1000CF0002D2A2C2A3C2A48022C2A28002D2A2D212
:1000DF00A3C2A48016C2A28002D2A2C2A3D2A480BD
:1000EF000AC2A28002D2A2D2A3D2A4E54D25E0FF7C
:1000FF00E54C120250E4F580054DE54D7002054CBC
:09010F00C39408E54C94004084FF
:0101180022C4
:10011900E4F54A754BF47909F580C2A2C2A3C2A4D9
:100129007FE87E03120270E9601325E02418F808BD
:10013900E6F5807FE87E031202701980EA754BF4B8
:10014900AF4B154BEF600B7B007A00793A12008FA9
:1001590080EE754BF4AF4B154BEF600B7B007A00CB
:10016900790812008F80EE75A0FEE4F54AC3E54ACE
:1001790094087480948050C5AF4AA8077401088018
:1001890002C333D8FCF4F5A07F507EC31202650583
:030199004A80DABF
:03000000020003F8
:0C000300787FE4F6D8FD75815302004AB6
:1001E600BB0110E58229F582E5833AF583E0F5F057
:1001F600A3E0225009E92582F886F008E622BBFE34
:100206000AE92582F8E2F5F008E222E5832AF58379
:08021600E993F5F0A3E993223E
:10000F00020119E493A3F8E493A34003F68001F2ED
:10001F0008DFF48029E493A3F85407240CC8C333F2
:10002F00C4540F4420C8834004F456800146F6DFC1
:10003F00E4800B010204081020408090019CE47EB4
:10004F00019360BCA3FF543F30E509541FFEE493B6
:10005F00A360010ECF54C025E060A840B8E493A37D
:10006F00FAE493A3F8E493A3C8C582C8CAC583CAA8
:10007F00F0A3C8C582C8CAC583CADFE9DEE780BE60
:0101E5000019
:00000001FF
